{
  "contractName": "Token",
  "abi": [
    {
      "inputs": [
        {
          "internalType": "address",
          "name": "",
          "type": "address"
        }
      ],
      "name": "balanceOf",
      "outputs": [
        {
          "internalType": "uint256",
          "name": "",
          "type": "uint256"
        }
      ],
      "stateMutability": "view",
      "type": "function",
      "constant": true
    },
    {
      "inputs": [],
      "name": "totalSupply",
      "outputs": [
        {
          "internalType": "uint256",
          "name": "",
          "type": "uint256"
        }
      ],
      "stateMutability": "view",
      "type": "function",
      "constant": true
    },
    {
      "inputs": [
        {
          "internalType": "uint256",
          "name": "_initalSupply",
          "type": "uint256"
        }
      ],
      "name": "token",
      "outputs": [],
      "stateMutability": "nonpayable",
      "type": "function"
    }
  ],
  "bytecode": "0x608060405234801561001057600080fd5b5061026f806100206000396000f3fe608060405234801561001057600080fd5b50600436106100415760003560e01c8063044215c61461004657806318160ddd1461006257806370a0823114610080575b600080fd5b610060600480360381019061005b9190610157565b6100b0565b005b61006a6100fe565b6040516100779190610193565b60405180910390f35b61009a6004803603810190610095919061020c565b610104565b6040516100a79190610193565b60405180910390f35b80600160003373ffffffffffffffffffffffffffffffffffffffff1673ffffffffffffffffffffffffffffffffffffffff168152602001908152602001600020819055508060008190555050565b60005481565b60016020528060005260406000206000915090505481565b600080fd5b6000819050919050565b61013481610121565b811461013f57600080fd5b50565b6000813590506101518161012b565b92915050565b60006020828403121561016d5761016c61011c565b5b600061017b84828501610142565b91505092915050565b61018d81610121565b82525050565b60006020820190506101a86000830184610184565b92915050565b600073ffffffffffffffffffffffffffffffffffffffff82169050919050565b60006101d9826101ae565b9050919050565b6101e9816101ce565b81146101f457600080fd5b50565b600081359050610206816101e0565b92915050565b6000602082840312156102225761022161011c565b5b6000610230848285016101f7565b9150509291505056fea2646970667358221220e0bc8cab40fd55fc116728215c1aa41dd648b9af045bbc38ef50f8094666f80b64736f6c634300080b0033",
  "immutableReferences": {},
  "source": "// SPDX-License-Identifier: GPL-3.\npragma solidity ^0.8.0;\n\ncontract Token {\n    \n    uint256 public totalSupply;\n\n    mapping (address => uint256) public balanceOf;\n\n    function token(uint256 _initalSupply) public {\n        balanceOf[msg.sender] = _initalSupply; \n        totalSupply = _initalSupply;\n    }\n       \n} ",
  "sourcePath": "/Users/istore/Desktop/Token/contracts/Token.sol",
  "compiler": {
    "name": "solc",
    "version": "0.8.11+commit.d7f03943.Emscripten.clang"
  },
  "schemaVersion": "3.4.3",
  "updatedAt": "2022-01-02T12:58:02.974Z",
  "networkType": "ethereum",
  "devdoc": {
    "kind": "dev",
    "methods": {},
    "version": 1
  },
  "userdoc": {
    "kind": "user",
    "methods": {},
    "version": 1
  }
}